:1000000052C0E0C16BC06AC069C068C067C066C04A
:1000100065C064C063C062C061C060C05FC00403EB
:10002000090410037500730062006C006F00760015
:1000300065000C0368006500610072007400120125
:10004000100100000008DEC0BEBA42230102000118
:1000500009022200010100800A09040000010300D6
:100060000000092101010001223400070581030875
:10007000006405010902A1010901A1000509190196
:100080002903150025019503750181029501750568
:10009000810305010930093109381581257F75086B
:1000A00095038106C0C011241FBECFE5D1E0DEBF9D
:1000B000CDBF10E0A0E6B0E0E8E3F8E002C00590B4
:1000C0000D92AA3BB107D9F710E0AAEBB0E001C04E
:1000D0001D92A83FB107E1F7F6D2ACC391CF85B727
:1000E000826085BF8BB780648BBF8BE48093CE002A
:1000F0008AE58093CD0008951F93DC01162F80912F
:10010000CD0084FF07C08091CE0098E889278093B6
:10011000CE0003C08AE58093CD00912FEFECF0E094
:100120008D91819391501916DCF38FEC90E0612F43
:1001300032D11C5F1093CD001F9108951F93CF9370
:10014000DF939091DE00935097FDA6C02091DB00D5
:100150008091DA008D3209F09DC0983009F09AC084
:10016000CCE0D0E0C21BD109CE51DF4F83EC8093AD
:10017000C2008AE5809360001092BB00888180767F
:1001800021F0CE017DD2282F7CC09A811092CB0025
:100190008981882321F41092CC0022E06CC0853044
:1001A00019F49093DF0066C0863009F04FC08B8150
:1001B000813041F48EE390E09093DD008093DC0089
:1001C00022E140C0823041F480E590E09093DD0070
:1001D0008093DC0022E236C08330F9F48A818823E0
:1001E00041F48EE190E09093DD008093DC0024E008
:1001F00029C0813041F482E290E09093DD00809349
:10020000DC0020E11FC08230E1F482E390E09093B3
:10021000DD008093DC002CE015C0813241F482E6E1
:1002200090E09093DD008093DC0029E00BC08232E7
:1002300041F482E790E09093DD008093DC0024E3BA
:1002400001C020E080E48093BB001BC0883021F413
:1002500021E081EE90E011C0893019F49093E10023
:1002600009C08A3011F421E006C08B3019F48BE408
:100270008093CE0020E08BEC90E09093DD008093A3
:10028000DC008F81882321F48E81821708F4282FC7
:10029000209361001092DE008091600084FF45C0D1
:1002A000809161008F3F09F440C0182F893008F019
:1002B00018E0811B809361008091C20098E8892733
:1002C0008093C200112321F12091DC003091DD00E8
:1002D0008091BB0086FF0AC0912FF901A3ECB0E02A
:1002E00084918D9331969150D9F708C0912FD901FF
:1002F000E3ECF0E08D9181939150E1F7C901019613
:100300001150810F911D1F5F9093DD008093DC00E1
:1003100083EC90E0612F3FD0612F6C5F6C3019F05F
:100320008FEF809361006093600094E186B38570E5
:1003300031F49150D9F71092DF001092D90010E0FB
:10034000992309F411E08091BA00811759F0112323
:1003500039F4F89420D2789461B780E090E05CD2D0
:100360001093BA00DF91CF911F910895A82FB92F54
:1003700080E090E041E050EA609530E009C02D91C6
:1003800082279795879510F084279527305EC8F3CC
:100390006F5FA8F30895EADF8D939D930895A6E01B
:1003A00088279927AA9569F00197E1F3B099FCCFC6
:1003B000B09BFECF81E09927A6B3019611F0A570FE
:1003C000D9F70895CF93CFB7CF93C395B09BE9F7F3
:1003D000B09B0BC0B09B09C0B09B07C0B09B05C0D1
:1003E000B09B03C0B09B01C0D5C00F92DF93C091FA
:1003F000DB00DD27CE51DF4F012EB09B03C0DF9124
:100400000F90E6CF2F930F931F934F932FEF4F6FC4
:1004100006B300FB20F95F933F9350E03BE065C0DB
:1004200016B30126502950FDC89556B3012700FB8D
:1004300025F92F7306B3B1F05027102710FB26F9CA
:1004400006B22230F0F000C016B3012700FB27F9F6
:100450000126502906B22430E8F54F77206816B3FC
:100460000000F6CF50274F7D206206B2102F00000B
:1004700000C006B300265029102710FB26F906B24B
:10048000E2CF4F7B06B3206400C0DACF01265029AB
:10049000157006B269F14E7F2160012F16B328C096
:1004A000002650294D7F06B22260102F29C0012658
:1004B00050294B7F06B22460012F2DC016B30126B0
:1004C0005029477F2860000006B22EC04F7E06B339
:1004D000206130C0422706B34993002650291027D7
:1004E00006B24FEF10FB20F9297F16B379F2157091
:1004F00059F10126502906B2012700FB21F9237F7B
:1005000006B371F2002650293150D0F006B2102700
:1005100010FB22F9277E16B351F20126502901273C
:1005200000FB06B223F92F7C49F2000006B3102726
:1005300010FB24F90026502906B22F7939F270CF2A
:1005400010E41ABF002719C03B503195C31BD0409F
:1005500010E41ABF0881033C09F10B34F9F0209133
:10056000D9001981110F1213EDCF4A81441F0936AA
:1005700051F10D3211F0013E29F70093E0003F9157
:100580005F914F911F910F912F91DF910F90CAB7FB
:10059000C6FD1BCFCF91CFBFCF9118952091E00022
:1005A000222369F31091DE00112379F534307AF1BA
:1005B0003093DE002093DA001091DB003BE0311B2A
:1005C0003093DB0024C00091DE000130F4F40AE532
:1005D0004F7049F43091600034FD1AC00093600000
:1005E000C2ECD0E019C03091CD0034FD11C00093B1
:1005F000CD00CEECD0E010C0052710E000C021C037
:10060000052710E0C89508BB14C03AE501C032EDDB
:10061000032EC0E0D0E032E017B31560C09A08B3F3
:1006200017BB55E020E84FEF20FF052708BB2795B3
:1006300017951C3F28F700004552B0F720FF05270B
:10064000279508BB17951C3FB8F629913A9561F795
:100650000A7F1091DF00110F08BBC250D04011F08B
:100660001093D90010E41ABF016017B31A7F402F0E
:100670004A7F54E05A95F1F708BB17BB48BB7FCFC0
:10068000FC01808180768032E1F48181813041F407
:100690008DEB90E09093DD008093DC0084E0089582
:1006A000823041F481EC90E09093DD008093DC0097
:1006B00081E008958A3029F483818093C10080E02D
:1006C000089580E008958EE028E130E00FB6F894B8
:1006D000A89521BD0FBE81BD02DD789487B38A63E2
:1006E00087BBC59AC39AC498C19810E036E5E32E3B
:1006F000F12CC0E0D0E0A89521DD8091CD0084FFF1
:100700002BC08091BC00863510F01092BC009091F7
:10071000BC00E92FF0E09C3268F097012E1B3F0BE4
:10072000F901EE0FFF1FEE59FF4F80818093BE004D
:10073000818109C0EE0FFF1FEE59FF4F808180932A
:10074000BE00818181958093BF009F5F9093BC0024
:100750008DEB90E064E0D0DC219639E5C83DD3070D
:1007600051F61F5F103109F410E0812F10FF02C015
:10077000C49A01C0C49881FF02C0C39A01C0C39843
:1007800082FF02C0C59A01C0C59883FF02C0C19A0A
:10079000B0CFC198AECFEF92FF920F931F93CF933C
:1007A000DF9340E4F42E00E0C0E0D0E0102F1F0DF6
:1007B00011BFF5DD9C0189E0243338070CF0102FC0
:1007C000F6942196C730D10511F0012FEFCF1150CB
:1007D00011BF1F5F7901C12FD0E0219610C0DFDD6E
:1007E0008453994097FF03C0909581959F4F8E1534
:1007F0009F0514F411B77C0181B78F5F81BF81B76A
:1008000090E0C817D9075CF711BFDF91CF911F9116
:100810000F91FF90EF900895262FE199FECF1CBA1B
:100820001FBA8EBB2DBB0FB6F894E29AE19A0FBEA9
:0808300001960895F894FFCF32
:100838005AFF000100030104020603070407050725
:100848000707080709060A040B030B010CFF0BFD39
:100858000BFB0AFA09F808F706F604F502F400F4A7
:10086800FEF4FCF4FAF4F8F5F7F5F6F5F5F6F5F616
:10087800F4F6F5F6F5F7F6F7F7F7F8F8F9F8FBF9FF
:0A088800FCFAFDFAFEFCFFFD00FE85
:00000001FF
